:020000040800F2
:100000006049002045010008930C0008BD0A000863
:1000100000000000000000000000000000000000E0
:10002000000000000000000000000000590D000862
:100030000000000000000000030100085B0D000844
:100040005701000800000000570100085701000890
:100050005701000857010008570100085701000820
:100060000000000057010008570100085701000870
:100070005701000857010008570100080000000060
:1000800057010008570100085701000857010008F0
:1000900057010008570100085701000857010008E0
:1000A00057010008570100085701000857010008D0
:1000B00057010008570100080348854600F078F80A
:1000C00000480047310E000860490020084B1968BD
:1000D0000868203080F30988022080F31488BFF379
:1000E0006F8F3FBCAE4608BC04BC62B61847000028
:1000F0002C000020EFF3108072B6704780F3108858
:100100007047EFF309800E4B1A6820381060F0C07A
:1001100044464D4656465F46F0C008B572B601F0FB
:1001200061F962B60CBC116808681030F0C8A046CE
:10013000A946B246BB4680F309882038F0C8184764
:100140002C0000200448804704480047FEE7FEE7F3
:10015000FEE7FEE7FEE7FEE7BD0D0008B900000878
:1001600030B50B46014600202022012409E00D464F
:10017000D5409D4205D31D469540491B25469540D7
:1001800040191546521E002DF1DC30BDD2B201E0FF
:100190000270401C491EFBD270470022F6E710B5E2
:1001A00013460A4604461946FFF7F0FF204610BDE5
:1001B000064C0125064E05E0E36807CC2B430C3CBA
:1001C00098471034B442F7D3FFF77AFF7816000847
:1001D000981600081CB501F053F802200E490402DD
:1001E00001910090002322460CA10F4801F054F920
:1001F00009490320091D01910090002322460BA10B
:100200000D4801F049F90448001F006801F088F822
:1002100001F042F81CBD0000040000204C45445F82
:100220005461736B00000000690C00084932435FA1
:100230005461736B00000000C10A0008FCB5002384
:1002400001259AE022462C469C4022406FD04E6801
:10025000012E05D0022E03D0112E01D0122E16D160
:1002600086680327B4465E00B646B7406646BE437E
:10027000B446CF687646B7406646374387604668DF
:10028000A6430C79E406E40F9C4034434460C668FE
:100290005F000324BC40A446A6438C68BC403443A2
:1002A000C4604C68022C01D0122C14D1DC08A400CC
:1002B00024180194266A5C07B646E60E0F24B44063
:1002C00000967646A643B6460C69009EB440764634
:1002D0002643019C266204686646B4430E79B6073D
:1002E000B60FBE40264306604C68E40044D59E0825
:1002F000254CB6003419A446246E9E07F60E0F272F
:10030000B740BC4305273F07B84201D1002710E0A2
:100310001E4FB84201D101270BE01D4FB84201D159
:10032000022706E01B4FB84202D1032701E023E079
:100330000527B740274364462766134E8036346846
:100340004F689443FF0300D51443346074684F68CA
:100350009443BF0300D5144374600B4C26684F6868
:100360009643FF0200D51643266066684F689643A1
:10037000BF0200D5164366605B1C0A681446DA406B
:1003800000D05FE7FCBD00000018024000040050F0
:1003900000080050000C00500069084000D0012007
:1003A0007047002A01D08161704781627047000068
:1003B00001488068704700001C00002010B5084804
:1003C00000240168821511430160204600F00AF8FC
:1003D000002801D0012401E000F028F8204610BDDB
:1003E0000020024070B50F4E0024317805460029E8
:1003F00015D07D20C000FFF7B3FE01460A48006813
:10040000FFF7AEFE00F042FB002808D1042D06D213
:1004100000222946401E00F023F8756000E0012408
:10042000204670BD1C0000202800002008B50B48A5
:1004300001680122114301600068104000900748E4
:100440004038C26B01040A43C263C06B084000908D
:100450000320400200F010FB08BD000040100240E5
:1004600010B500F0B3FC10BD10B50F4C216803228D
:100470005202914301432160C11FFF39FA390ED165
:100480000A480621006848430949FFF769FE401CF5
:1004900002E0002805D0401E61694905F9D400201A
:1004A00010BD032010BD0000007000402800002097
:1004B00040420F00F8B50F46060043D04D4D286866
:1004C0004007400FB84213D22868C008C000384324
:1004D0002860FFF76DFF044605E0FFF769FF011B89
:1004E0004548814261D828684007400FB842F4D19E
:1004F0003068424C81070DD5400704D5A06807211C
:1005000009030843A060A0680F2109028843B1686D
:100510000843A0603078C00732D0706801280AD044
:1005200002280BD000280FD03449403103280ED0C8
:10053000C969890704E02168890301E0216889010C
:10054000002906DB0120F8BD21684905F8E7096AA2
:10055000EFE7A168C908C9000143A160FFF728FFC0
:10056000009006E0FFF724FF0099411A22488142DB
:100570001BD8A068382108407168C9008842F1D1B1
:1005800028684007400FB84217D91A480168C908BF
:10059000C90039430160FFF70BFF054607E0FFF78D
:1005A00007FF411B1448814201D90320F8BD1148BF
:1005B00000684007400FB842F1D13078400706D5B7
:1005C000A068072109038843F1680843A06000F090
:1005D0001DF8A1683C2289091140094A515CC906ED
:1005E000C90EC8400749086007480068FFF7FAFECF
:1005F000F8BD0000002002408813000000100240F7
:1006000038160008280000202000002010B5204CDB
:10061000A068204A8006400F16D0A0688006410FCF
:10062000501001290FD0A1688906490F022912D064
:10063000A0688006400F042823D0A0688006400FE1
:10064000032821D0002010BD206801218004400F24
:100650008140104612E0E1688B07E1689B0F490674
:10066000490F491C032B00D01046FFF779FDE168C4
:100670004904490E4843E168490F491CFFF770FDE2
:1006800010BD0120C00310BD7D20000210BD000080
:10069000001002400024F400F8B504007ED0207859
:1006A0003827C007EB4D002846D0A868E9683840D5
:1006B0008907890F102802D008280BD001E00329F0
:1006C00008D001206268000482420AD129680143EF
:1006D000296015E0286880032ED560680028DDD0E9
:1006E0002AE0052301211B0489049A422A6802D1C9
:1006F0000A432A60EAE782432A6028688843286020
:10070000606800280CD0FFF753FE064604E0FFF7B0
:100710004FFE801B642873D828688003F7D50BE050
:10072000FFF746FE064604E0FFF742FE801B642802
:10073000F1D828688003F7D42078800769D5A868A5
:10074000E96838408A070721920FC902102802D0B1
:10075000002813D001E0022A10D0E068002846D01B
:10076000286888432169084328602868FF210131EF
:1007700008432860FFF71CFE06462CE02A68520555
:1007800002D5E268002A89D06A687F231B029A4357
:1007900063691B021A436A60002800E08DE00ED1F5
:1007A000286888432169084328602868012180045B
:1007B000400F8140A848FFF7D3FCA8490860A8482B
:1007C0000068FFF70FFE002877D122E0FFF7F0FD69
:1007D000801B02289FD828684005F7D568687F21CC
:1007E00009028843616909020843686011E02968C9
:1007F000FF20013081432960FFF7DAFD064605E05E
:1008000098E0FFF7D5FD801B022884D828684005B2
:10081000F7D42078934E00072ED5A8688006400FA5
:1008200003280AD0A0690028306A16D001210843A5
:100830003062FFF7BDFD07460BE0306A80071BD52D
:10084000A06900289FD017E0FFF7B2FDC01B022867
:1008500070D8306A8007F7D50EE04008400030625B
:10086000FFF7A6FD074604E0FFF7A2FDC01B022824
:1008700060D8306A8007F7D4207840076CD5A86824
:1008800000278006400F042818D0E86BC00008D469
:10089000E96B012000070143E963E96B014001278F
:1008A000009171480168C90519D401688215114386
:1008B0000160FFF77DFD00900DE083E0F0698007A7
:1008C0004AD5A06800287DD046E0FFF771FD009969
:1008D000401A02282ED864480068C005F5D5A168E2
:1008E000012910D004200529F16911D049084900D7
:1008F000F161F1698143F161A068002816D0FFF72A
:1009000057FD00900EE0F06901210843F061F3E724
:100910000143F161F7E7FFF74BFD0099411A534896
:1009200081426DD8F0698007F5D50EE0FFF740FDF4
:10093000009007E064E0FFF73BFD0099411A4B4847
:1009400081425DD8F0698007F5D4002F04D0E96BAF
:10095000012000078143E963E069002877D0A96896
:100960008906490F022951D0012636060228286837
:100970000DD0B0432860E86880088000E860E8682F
:100980003B490840E860FFF713FD04463AE0B043F6
:100990002860FFF70DFD074604E0FFF709FDC01BC7
:1009A00002282DD828688001F7D4616A206AA26ADB
:1009B0000843E16A120211430843216B0843E968C6
:1009C0002C4A00E041E011400843E86028683043C9
:1009D0002860E868012109070843E860FFF7E8FCA0
:1009E000044604E0FFF7E4FC001B022808D828684E
:1009F0008001F7D52BE0FFF7DBFC001B022801D9B3
:100A00000320F8BD28688001F5D420E00128F8D043
:100A1000E868226A8107890F914216D17021626AC3
:100A20000140914211D17F21A26A090201401202C4
:100A300091420AD11F214904E26A0140914204D146
:100A4000400F216B4007884201D00120F8BD0020F3
:100A5000F8BD0000001002400024F400280000202F
:100A60002000002040100240007000408813000069
:100A7000FFFFFEEF8C80C11F03490A6803235B025E
:100A80009A4302430A60704700000140094910B5CB
:100A9000401E884201D9012010BD074C606103212E
:100AA000081F00F093F90020A061072020610020BA
:100AB00010BD0000FFFFFF0000E000E0FEE70000C7
:100AC0007D24E4001021034800F01EF9204600F0C8
:100AD00017FCF7E70C00002070B5054600F0DAF8C7
:100AE000134E0024012000F00BFC280601D4002244
:100AF00000E0012220213046FFF753FC6806050E76
:100B0000012000F0FDFB012210213046FFF749FCD7
:100B1000012000F0F5FB012000F0F2FB0022102183
:100B20003046FFF73EFC641CE4B2082CDAD370BDFB
:100B30000008005010B500F0ADF8144C012220213F
:100B40002046FFF72EFC012000F0DAFB01221021E5
:100B50002046FFF726FC012000F0D2FB012000F028
:100B6000CFFB002220212046FFF71BFC012000F0D4
:100B7000C7FB012000F0C4FB002210212046FFF734
:100B800010FC012000F0BCFB10BD0000000800506C
:100B900010B500F07FF80D4C002220212046FFF711
:100BA00000FC012000F0ACFB012210212046FFF7E1
:100BB000F8FB012000F0A4FB012220212046FFF7D2
:100BC000F0FB012000F09CFB10BD0000000800506D
:100BD00030B585B0002414216846FFF7DEFA2020E6
:100BE0000090002001900120114D02906946284696
:100BF000FFF724FB012000F083FB0122102128468F
:100C0000FFF7CFFB012000F07BFB20212846FFF7F8
:100C1000C3FB002800D00124002210212846FFF742
:100C2000C0FB012000F06CFB204605B030BD000089
:100C30000008005008B50A48426B01210A4342638C
:100C4000406B084000900748416081600221C1600C
:100C5000C9010160014605200007FFF7EFFA08BD52
:100C6000001002404C450020FF25013505242407D3
:100C7000002229462046FFF794FB0A2000F040FBA3
:100C8000012229462046FFF78CFB0A2000F038FBA2
:100C9000EEE7704700B585B014216846FFF77DFA8E
:100CA000202000901120019001200290002003904C
:100CB00069460248FFF7C2FA05B000BD00080050BF
:100CC00010B586B0FFF7E6FF14216846FFF765FA16
:100CD0001020009011200190012002900020094C6A
:100CE000039069462046FFF7A9FA012220212046F9
:100CF000FFF757FB012210212046FFF752FB06B0F9
:100D000010BD00000008005070B50E460546FFF704
:100D100011FF6020FFF7E0FEFFF75AFF002407E015
:100D200028786D1CFFF7D8FEFFF752FF641CE4B271
:100D3000B442F5D3FFF72CFFFFF7FCFE4820FFF786
:100D4000CBFEFFF745FF0120FFF7C6FEFFF740FF90
:100D5000FFF71EFF012070BD704710B500F08AFB41
:100D600010BD10B592B034216846FFF716FA002482
:100D700001200D940E940F9440021094FFF774FB21
:100D800002200090C0010390402005900494079435
:100D90006846FFF781FC002801D072B6FEE7072005
:100DA0000D900E940F94002110940DA8FFF782FB74
:100DB000002801D072B6FEE712B010BD0120024932
:100DC000C00688607047000000ED00E08307FF2246
:100DD000DB0E9A408907090E9940002808DB83083A
:100DE00009489B001B181868904308431860704717
:100DF0000007000F0838830804489B001B18D869B7
:100E000090430843D861704700E400E000ED00E043
:100E100002E008C8121F08C1002AFAD170477047C3
:100E2000002001E001C1121F002AFBD17047000021
:100E30001CB5FFF7C3FAFFF794FFFFF7FBFEFFF7C0
:100E40003FFF0C48426B04210A434263406B00237E
:100E500008400120084942020191009007A10B4877
:100E600000F01AFB012802D00020C0431CBD00F096
:100E70008FFAFEE70010024000000020417070541D
:100E800061736B437265617465000000D5010008F1
:100E9000F8B5134C0F46E66805462068001D00F0C3
:100EA000ABF9681C07D1002F05D021680D48091D3A
:100EB00000F0DAF9F8BD2068751945602168B5427F
:100EC00004D2A06B091D00F0B7F9F8BD606B091DD5
:100ED00000F0B2F9A06A8542F7D2A562F8BD000021
:100EE0002C00002038010020F8B5054600F0C8F9B4
:100EF000294CA068401CA0602068284F002803D01F
:100F00006069002827D02CE02560A068012828D13E
:100F1000002614207043C01900F080F9761C052EBD
:100F2000F7D31E48643000F079F91C48783000F09F
:100F300075F91A488C3000F071F91848A03000F0AB
:100F40006DF91648B43000F069F9144864306063F4
:100F50001430A06305E02068E96AC06A884200D8BE
:100F60002560606A401C6062E86A2169884200D995
:100F7000206114214843C019291D00F075F900F0C3
:100F80008BF96069002806D02068E96AC06A884247
:100F900001D200F0A9F9F8BD2C0000208400002047
:100FA00070B5114E114C18E000F014FA30680028AA
:100FB00017D000F0F1FA00F063F9F068C568281D59
:100FC00000F01AF9A068401EA0606068401E6060D2
:100FD00000F062F9284600F00BF860680028E3D1C1
:100FE00070BD00F0D9FAF8E7240100202C000020A1
:100FF00010B50446006B00F059F9204600F056F990
:1010000010BD000011210E488902420705D0C01D05
:10101000C0080B4AC000821A891A0A4A00234118E4
:1010200009C20839C908C900183A11604B600B6041
:101030000B1A0AC093600120C0075360D06070474C
:101040004C01002078000020044CFFF7A9FF206825
:101050000128FAD900F048F9F7E7000084000020E1
:10106000FFB581B00C9C9000236B001F1818C608B8
:101070000A9DF600002023180A5C20331A750A5CCA
:10108000002A02D0401C1028F5D327460021403703
:10109000F970052D00D30425201DE56200F0C9F884
:1010A0002046183000F0C5F824610520401B64621A
:1010B000A0610020606438723046049A019900F003
:1010C0008BF820600B98002800D0046005B0F0BDBC
:1010D00030B5114900E011460A688242FBD34B68E3
:1010E0005C18844203D14068181848600846436879
:1010F0001C18944209D1084C103C2468A24209D023
:1011000052689A1842600A6812680260814200D0F0
:10111000086030BD0460F9E7780000200648416BA4
:101120000968002905D0416BC968C96849688162AE
:1011300070470021C943FAE72C00002072B6FEE791
:10114000F8B50546002700F045F9224E3068002822
:1011500001D1FFF757FFF068054237D1002D35D098
:101160000835680704D06807400F0821081A451998
:10117000002D2BD07068854228D8164810300146C3
:101180000C6801E020460C466168A94202D2216841
:101190000029F7D131688C4218D0076821680160B6
:1011A00060680837411B102904D9601941606560E7
:1011B000FFF78EFF61687068401A7060B2689042F5
:1011C00000D2B060F0680143002003C400F0E4F9ED
:1011D0003846F8BD6800002010B50124031F24061E
:1011E0001C601B1F1960191F024B0B60143940381B
:1011F0000A6010BD3D1100084368826801699A6069
:10120000836842685A604A68824201D182684A60B3
:10121000002202610868401E0860704701460831DC
:1012200000224160D243C1608260016100210160FF
:10123000704700210161704730B50B685A1C02D01D
:101240000246083202E0026904E02246546825683A
:101250009D42FAD953684B6099608A605160086179
:101260000168491C016030BD42684A6093688B6028
:1012700093685960916008610168491C016070477A
:1012800072B604480168491C0160BFF34F8FBFF379
:101290006F8F70478000002003490868401E086077
:1012A00000D162B6704700008000002070B50028B1
:1012B00016D004460B4D083C6068E96808420FD020
:1012C0002268002A0CD18843606000F083F86068CF
:1012D0006968401868602046FFF7FAFE00F05CF984
:1012E00070BD00006800002001200449000748602C
:1012F000BFF34F8FBFF36F8F7047000000ED00E02A
:1013000010B5020009D000F065F800211046FFF783
:10131000BFFD00F041F9002801D1FFF7E5FF10BD46
:1013200070B50546FFF7ACFF174C002D00D12568BE
:10133000281DFFF761FFA86A002803D0284618304F
:10134000FFF75AFF606A401C60622068854207D13F
:10135000291D0E48FFF788FF6068401C606007E0A9
:10136000A068401EA0602846FFF742FEFFF7D6FEA9
:10137000FFF792FF6069002804D02068854201D100
:10138000FFF7B2FF70BD00002C00002024010020F8
:101390001CB50C4800240190234680220AA1009429
:1013A0000B4800F079F801280AD172B600210548EF
:1013B000C9432C38816201214161C46000F03AF8D0
:1013C0001CBD00005800002049444C4500000000AE
:1013D000491000080248016B491C01637047000076
:1013E0002C00002010B51148016B002902D001210A
:1013F000C16110BD0021C16101690D4A00E0491EB3
:1014000014234B43D358002BF9D014234B439A1881
:10141000536814465B6808345360A34201D15B688B
:101420005360DA680260016110BD00002C000020EA
:101430008400002010B50B48016AFF2212041143FA
:101440000162016A120211430162084806494161C2
:1014500007210161064900200860FEF737FE0020E1
:1014600010BD000000ED00E01F03000000E000E000
:101470008000002010B5FEF73DFE044600F034F871
:10148000002803D001200349000748602046FEF7EA
:1014900035FE10BD00ED00E0FFB585B016469000AA
:1014A0000F9FFFF74DFE05001AD04C20FFF748FEB6
:1014B000040012D0256300210E980391019700903B
:1014C00002943246089B06990598FFF7C9FD20460D
:1014D000FFF70AFD012009B0F0BD2846FFF7E6FE40
:1014E0000020C043F7E70000F8B5294C0027206B27
:1014F000002808D0A069401CA061E069002800D045
:1015000001273846F8BDE668761CE66008D1606BB6
:10151000A16B6163A063206A401C2062FFF7FEFD9F
:10152000A06A86420AD3606B0068002810D0606B06
:10153000C068C568686886420DD2A0622068142120
:10154000C06A4843134908580128D6D90127D4E76F
:101550000020C043F1E7281DFFF74EFEA86A0028CF
:1015600003D028461830FFF747FEE86A2169884211
:1015700000D920611421484306494018291DFFF76E
:1015800073FEE86A2168C96A8842CCD30127CAE79A
:101590002C00002084000020F8B500252F46FFF71E
:1015A0006FFE234C206B401E2063206B00283BD134
:1015B000A168204E00291DD136E0F068C568284694
:1015C0001830FFF719FE281DFFF716FEE86A21699B
:1015D000884200D920611421484316498C394018AB
:1015E000291DFFF741FEE86A2168C96A884201D3D4
:1015F0000120E06130680028DFD1002D01D0FFF725
:101600008DFDA569002D09D00126FFF76DFF00288B
:1016100000D0E6616D1EF8D10020A061E0690028CD
:1016200002D00127FFF760FEFFF736FE3846F8BD0F
:101630002C0000201001002000000000000000002D
:10164000000000000000000000000000000000009A
:101650000000000000000000010000000200000087
:101660000300000004000000060000000700000066
:101670000800000009000000981600080000002083
:1016800084000000100E00081C17000884000020D1
:10169000DC480000200E00080000000000000000F0
:1016A00000000000FFFFFFFFFFFFFFFFFFFFFFFF46
:1016B000FFFFFFFF01000000040000000000000029
:1016C0000024F40000000000000000000000000002
:1016D000000000000000000000000000000000000A
:1016E00000000000000000000000000000000000FA
:1016F00000000000000000000000000000000000EA
:1017000000000000000000000000000000000000D9
:0C1710000000000000000000AAAAAAAA25
:04000005080000B936
:00000001FF
