:020000040800F2
:1000000080490020450100084B110008450E0008FA
:1000100000000000000000000000000000000000E0
:10002000000000000000000000000000791200083D
:100030000000000000000000030100087B1200081F
:100040005701000800000000570100085701000890
:100050005701000857010008570100085701000820
:100060000000000057010008570100085701000870
:100070005701000857010008570100080000000060
:1000800057010008570100085701000857010008F0
:1000900057010008570100085701000857010008E0
:1000A00057010008570100085701000857010008D0
:1000B00057010008570100080348854600F078F80A
:1000C000004800477913000880490020084B196850
:1000D0000868203080F30988022080F31488BFF379
:1000E0006F8F3FBCAE4608BC04BC62B61847000028
:1000F0002C000020EFF3108072B6704780F3108858
:100100007047EFF309800E4B1A6820381060F0C07A
:1001100044464D4656465F46F0C008B572B601F0FB
:10012000FDFB62B60CBC116808681030F0C8A04630
:10013000A946B246BB4680F309882038F0C8184764
:100140002C0000200448804704480047FEE7FEE7F3
:10015000FEE7FEE7FEE7FEE7FD120008B900000833
:1001600030B50B46014600202022012409E00D464F
:10017000D5409D4205D31D469540491B25469540D7
:1001800040191546521E002DF1DC30BDD2B201E0FF
:100190000270401C491EFBD270470022F6E710B5E2
:1001A00013460A4604461946FFF7F0FF204610BDE5
:1001B000064C0125064E05E0E36807CC2B430C3CBA
:1001C00098471034B442F7D3FFF77AFFB01B00080A
:1001D000D01B000830B5264885B0426B02210A4387
:1001E0004263406B0840009000F0DCFF1421684639
:1001F000FFF7D3FF1120019001200290012400207D
:100200001C4D6403039000946946284600F022F9CF
:1002100001229103284600F0D0F901222146284608
:1002200000F0CBF95A223A21572000F085F8124D00
:1002300020242819203802782146572000F07CF825
:10024000641CE4B22D2CF4D90B4D00240E352A5D2C
:100250002146572000F070F8641CE4B20F2CF6D948
:1002600000223A21572000F067F805B030BD0000A9
:10027000001002400004005084000020704700007D
:10028000084CFFF7A7FF2021572000F00DF8207041
:10029000032803D1FF21602000F0CAFF642001F091
:1002A000CBFAEEE700000020F8B50D46044600F05A
:1002B00059FE6400E0B200F0F5FD00F0F7FE2846BC
:1002C00000F0F0FD00F0F2FE00F09CFE00F04AFEAF
:1002D000641CE0B200F0E6FD00F0E8FE002400F04F
:1002E00035FF00250127134E7F0301223946304692
:1002F00000F063F9012001F09FFA6006040E01216D
:100300008903304600F054F9002801D0012004434D
:1003100000223946304600F050F9012001F08CFAF5
:100320006D1CEDB2082DE0D300F03CFF00F06AFE3A
:100330002046F8BD0004005070B515460E46044630
:1003400000F010FE6006000E00F0ACFD00F0AEFE06
:10035000304600F0A7FD00F0A9FE284600F0A2FDFF
:1003600000F0A4FE00F04EFE70BD00007CB501F070
:1003700023FA02201E4905020191009000232A461B
:100380001CA11F4801F024FB19490320091D0191FC
:10039000009000232A461BA11D4801F019FB1448B8
:1003A00005241030019000232A461AA100941E480B
:1003B00001F00EFB0E49042008310191009000234A
:1003C0002A461AA11D4801F003FB094800230C30FE
:1003D00001902A461AA100941D4801F0F9FA044838
:1003E0000838406801F038FA01F0F2F97CBD0000ED
:1003F000080000204C45445F5461736B000000000E
:1004000025110008534D313631365F5461736B004E
:1004100071120008415054384C31365F43726561A7
:10042000745F5461736B00007D02000841505438C2
:100430004C31365F5461736B00000000810200088C
:1004400064656275675F756172745F5461736B0098
:100450006F130008FCB5002301259AE022462C46C4
:100460009C4022406FD04E68012E05D0022E03D052
:10047000112E01D0122E16D186680327B4465E00D5
:10048000B646B7406646BE43B446CF687646B740E8
:100490006646374387604668A6430C79E406E40F56
:1004A0009C4034434460C6685F000324BC40A446BB
:1004B000A6438C68BC403443C4604C68022C01D015
:1004C000122C14D1DC08A40024180194266A5C07BD
:1004D000B646E60E0F24B44000967646A643B646CE
:1004E0000C69009EB44076462643019C266204684F
:1004F0006646B4430E79B607B60FBE402643066083
:100500004C68E40044D59E08254CB6003419A44636
:10051000246E9E07F60E0F27B740BC4305273F0702
:10052000B84201D1002710E01E4FB84201D1012787
:100530000BE01D4FB84201D1022706E01B4FB84225
:1005400002D1032701E023E00527B7402743644693
:100550002766134E803634684F689443FF0300D5F6
:100560001443346074684F689443BF0300D5144348
:1005700074600B4C26684F689643FF0200D5164303
:10058000266066684F689643BF0200D516436660D2
:100590005B1C0A681446DA4000D05FE7FCBD00002F
:1005A000001802400004005000080050000C0050E9
:1005B0000069084000D001207047002A01D0816105
:1005C00070478162704700000148806870470000F2
:1005D0001C000020024881680278891881607047F9
:1005E0001C00002010B50848002401688215114342
:1005F0000160204600F00AF8002801D0012401E043
:1006000000F028F8204610BD0020024070B50F4EC3
:10061000002431780546002915D07D20C000FFF761
:100620009FFD01460A480068FFF79AFD00F0F2FBC3
:10063000002808D1042D06D200222946401E00F0D1
:1006400023F8756000E00124204670BD1C000020E6
:100650002800002008B50B48016801221143016001
:1006600000681040009007484038C26B01040A43FC
:10067000C263C06B084000900320400200F0C0FB42
:1006800008BD00004010024010B500F03FFE10BD54
:1006900010B50F4C2168032252029143014321609F
:1006A000C11FFF39FA390ED10A48062100684843B4
:1006B0000949FFF755FD401C02E0002805D0401E07
:1006C00061694905F9D4002010BD032010BD000068
:1006D000007000402800002040420F00F8B504469A
:1006E00000680026524D800358D5514800274038F5
:1006F000C06BC00009D44E484038C26B01040A43A5
:10070000C263C06B0840012700904A480168821507
:1007100011430160FFF758FF009005E0FFF754FF19
:100720000099401A022825D842480068C005F5D52E
:10073000E8690321090208400FD0A16981420CD069
:10074000E86903210902EA698843012109040A438F
:10075000EA61EA698A43EA61E861C0070FD0FFF7FE
:1007600033FF009008E0FFF72FFF0099411A32484D
:10077000814201D9032609E0E8698007F3D5E869D9
:10078000032109028843A1690843E861002F05D0CD
:1007900027484038C16B02049143C1632078C007E9
:1007A00005D0686961688008800008436861207826
:1007B000800705D568690C218843A16808436861F2
:1007C0002078800606D56869032109038843E1681B
:1007D000084368612088400411D568696169800018
:1007E000800808436861012160698907884206D151
:1007F0000F484038C168012212041143C1602088AB
:10080000000512D5686903218903884321690843DB
:100810006861012120698903884206D10448403873
:10082000C168012212041143C1603046F8BD0000C6
:10083000401002400070004088130000F8B50F46D9
:10084000060043D04D4D28684007400FB84213D2F0
:100850002868C008C00038432860FFF7B5FE04468A
:1008600005E0FFF7B1FE011B4548814261D82868C9
:100870004007400FB842F4D13068424C81070DD593
:10088000400704D5A068072109030843A060A068B9
:100890000F2109028843B1680843A0603078C0077F
:1008A00032D0706801280AD002280BD000280FD05F
:1008B0003449403103280ED0C969890704E0216812
:1008C000890301E021688901002906DB0120F8BDC8
:1008D00021684905F8E7096AEFE7A168C908C90076
:1008E0000143A160FFF770FE009006E0FFF76CFE89
:1008F0000099411A224881421BD8A068382108403B
:100900007168C9008842F1D128684007400FB84299
:1009100017D91A480168C908C90039430160FFF7AF
:1009200053FE054607E0FFF74FFE411B1448814286
:1009300001D90320F8BD114800684007400FB842B4
:10094000F1D13078400706D5A06807210903884314
:10095000F1680843A06000F01DF8A1683C228909F5
:100960001140094A515CC906C90EC84007490860D0
:1009700007480068FFF74AFEF8BD0000002002406B
:100980008813000000100240701B0008280000209F
:100990002000002010B5204CA068204A8006400F9F
:1009A00016D0A0688006410F501001290FD0A16811
:1009B0008906490F022912D0A0688006400F04283A
:1009C00023D0A0688006400F032821D0002010BD4E
:1009D000206801218004400F8140104612E0E16848
:1009E0008B07E1689B0F4906490F491C032B00D078
:1009F0001046FFF7B5FBE1684904490E4843E1683A
:100A0000490F491CFFF7ACFB10BD0120C00310BD0E
:100A10007D20000210BD0000001002400024F40000
:100A2000F8B504007ED020783827C007EB4D0028A9
:100A300046D0A868E96838408907890F102802D095
:100A400008280BD001E0032908D0012062680004C7
:100A500082420AD129680143296015E02868800391
:100A60002ED560680028DDD02AE0052301211B0473
:100A700089049A422A6802D10A432A60EAE782433B
:100A80002A60286888432860606800280CD0FFF737
:100A90009BFD064604E0FFF797FD801B642873D892
:100AA00028688003F7D50BE0FFF78EFD064604E0CB
:100AB000FFF78AFD801B6428F1D828688003F7D4EB
:100AC0002078800769D5A868E96838408A07072137
:100AD000920FC902102802D0002813D001E0022A88
:100AE00010D0E068002846D0286888432169084370
:100AF00028602868FF21013108432860FFF764FD62
:100B000006462CE02A68520502D5E268002A89D000
:100B10006A687F231B029A4363691B021A436A6057
:100B2000002800E08DE00ED1286888432169084341
:100B30002860286801218004400F8140A848FFF701
:100B40000FFBA8490860A8480068FFF75FFD002870
:100B500077D122E0FFF738FD801B02289FD8286854
:100B60004005F7D568687F21090288436169090259
:100B70000843686011E02968FF2001308143296043
:100B8000FFF722FD064605E098E0FFF71DFD801BFC
:100B9000022884D828684005F7D42078934E0007AF
:100BA0002ED5A8688006400F03280AD0A069002827
:100BB000306A16D0012108433062FFF705FD074671
:100BC0000BE0306A80071BD5A06900289FD017E092
:100BD000FFF7FAFCC01B022870D8306A8007F7D5EF
:100BE0000EE0400840003062FFF7EEFC074604E0EC
:100BF000FFF7EAFCC01B022860D8306A8007F7D4F0
:100C0000207840076CD5A86800278006400F04288C
:100C100018D0E86BC00008D4E96B0120000701433D
:100C2000E963E96B01400127009171480168C9053A
:100C300019D40168821511430160FFF7C5FC0090CB
:100C40000DE083E0F06980074AD5A06800287DD0D8
:100C500046E0FFF7B9FC0099401A02282ED86448F4
:100C60000068C005F5D5A168012910D00420052928
:100C7000F16911D049084900F161F1698143F161DD
:100C8000A068002816D0FFF79FFC00900EE0F069E6
:100C900001210843F061F3E70143F161F7E7FFF752
:100CA00093FC0099411A534881426DD8F06980073E
:100CB000F5D50EE0FFF788FC009007E064E0FFF751
:100CC00083FC0099411A4B4881425DD8F069800746
:100CD000F5D4002F04D0E96B012000078143E963BC
:100CE000E069002877D0A9688906490F022951D008
:100CF00001263606022828680DD0B0432860E8682F
:100D000080088000E860E8683B490840E860FFF739
:100D10005BFC04463AE0B0432860FFF755FC074609
:100D200004E0FFF751FCC01B02282DD82868800181
:100D3000F7D4616A206AA26A0843E16A1202114389
:100D40000843216B0843E9682C4A00E041E0114068
:100D50000843E860286830432860E86801210907F3
:100D60000843E860FFF730FC044604E0FFF72CFC82
:100D7000001B022808D828688001F7D52BE0FFF770
:100D800023FC001B022801D90320F8BD286880013C
:100D9000F5D420E00128F8D0E868226A8107890F9D
:100DA000914216D17021626A0140914211D17F2196
:100DB000A26A09020140120291420AD11F2149048C
:100DC000E26A0140914204D1400F216B4007884202
:100DD00001D00120F8BD0020F8BD00000010024045
:100DE0000024F400280000202000002040100240D1
:100DF0000070004088130000FFFFFEEF8C80C11FD1
:100E000003490A6803235B029A4302430A6070475E
:100E100000000140094910B5401E884201D9012057
:100E200010BD074C60610321081F00F06FFA00201D
:100E3000A06107202061002010BD0000FFFFFF001F
:100E400000E000E0FEE7000070B5054600F094F910
:100E5000134E0024012000F0EFFC280601D40022EC
:100E600000E0012220213046FFF7A7FB6806050EAF
:100E7000012000F0E1FC012210213046FFF79DFB2C
:100E8000012000F0D9FC012000F0D6FC0022102146
:100E90003046FFF792FB641CE4B2082CDAD370BD35
:100EA00000080050F8B5044600F07CF90025154F05
:100EB00001267603012000F0BFFC200601D40022A9
:100EC00000E00122012189033846FFF776FB600626
:100ED000040E012000F0B0FC012231463846FFF735
:100EE0006CFB012000F0A8FC012000F0A5FC002212
:100EF00031463846FFF761FB6D1CEDB2082DD9D3A2
:100F0000F8BD00000004005010B500F035F9144C95
:100F1000012220212046FFF750FB012000F08CFC2D
:100F2000012210212046FFF748FB012000F084FC3D
:100F3000012000F081FC002220212046FFF73DFB2C
:100F4000012000F079FC012000F076FC0022102145
:100F50002046FFF732FB012000F06EFC10BD0000C0
:100F60000008005070B500F01DF90122144D9403E3
:100F700021462846FFF721FB012000F05DFC0122FD
:100F8000560331462846FFF718FB012000F054FCB9
:100F9000012000F051FC002221462846FFF70DFBFE
:100FA000012000F049FC012000F046FC00223146FF
:100FB0002846FFF702FB012000F03EFC70BD000058
:100FC0000004005010B500F0D7F80D4C002220218D
:100FD0002046FFF7F2FA012000F02EFC012210213A
:100FE0002046FFF7EAFA012000F026FC012220212A
:100FF0002046FFF7E2FA012000F01EFC10BD0000C1
:101000000008005070B500F0CDF801240D4DA40388
:10101000002221462846FFF7D0FA012000F00CFC00
:10102000012251032846FFF7C8FA012000F004FC12
:10103000012221462846FFF7C0FA012000F0FCFB00
:1010400070BD00000004005030B585B000241421AC
:101050006846FFF7A2F820200090002001900120B0
:10106000114D029069462846FFF7F4F9012000F07F
:10107000E3FB012210212846FFF79FFA012000F030
:10108000DBFB20212846FFF793FA002800D001243B
:10109000002210212846FFF790FA012000F0CCFB37
:1010A000204605B030BD00000008005070B5002497
:1010B00000F04CF8012000F0BFFB01220C4D56035C
:1010C00031462846FFF779FA012000F0B5FB2901E7
:1010D0002846FFF76DFA002800D00124002231468F
:1010E0002846FFF76AFA012000F0A6FB204670BDF3
:1010F0000004005008B509494A6B012002434A63C5
:10110000496B022201400091054948608860CA602D
:10111000086005200007FFF79DF908BD0010024098
:101120006C45002005242407002201212046FFF7FA
:1011300044FA012000F080FB012211462046FFF70F
:101140003CFA012000F078FBEEE7704700B585B06F
:1011500014216846FFF721F8012080030090002049
:1011600001900120029069460248FFF773F905B02B
:1011700000BD00000004005000B585B01421684691
:10118000FFF70BF820200090112001900120029021
:101190000020039069460248FFF75CF905B000BDE6
:1011A0000008005000B585B014216846FEF7F5FF31
:1011B0000120800300901120019001200290002066
:1011C000039069460248FFF745F905B000BD0000ED
:1011D0000004005010B5144886B0426B04210A4345
:1011E0004263406B08400090FFF7C6FF1421684639
:1011F000FEF7D3FF102000901120019001200290F3
:1012000000200A4C039069462046FFF723F901228B
:1012100020212046FFF7D1F9012210212046FFF7B7
:10122000CCF906B010BD00000010024000080050CC
:1012300070B50D460446FFF767FE2046FFF704FE33
:10124000FFF702FF2846FFF7FFFDFFF7FDFEFFF760
:10125000B9FEFFF759FE4820FFF7F6FDFFF7F4FE51
:101260000120FFF7F1FDFFF7EFFEFFF7ABFE70BDCA
:101270000A2000F0E1FAFBE7704710B500F096FB9A
:10128000FFF7A8F910BD10B598B034216846FEF7F5
:1012900084FF00240D940E940F941C2111A8109427
:1012A000FEF77BFF01204002FFF7F2F902200090D9
:1012B000C001039040200590049407946846FFF70E
:1012C000AFFB002801D072B6FEE707200D900E9408
:1012D0000F94002110940DA8FFF7B0FA002801D058
:1012E00072B6FEE701201190129411A8FFF7F6F9EB
:1012F000002801D072B6FEE718B010BD01200249E7
:10130000C00688607047000000ED00E08307FF2200
:10131000DB0E9A408907090E9940002808DB8308F4
:1013200009489B001B1818689043084318607047D1
:101330000007000F0838830804489B001B18D86971
:1013400090430843D861704700E400E000ED00E0FE
:1013500002E008C8121F08C1002AFAD1704770477E
:10136000002001E001C1121F002AFBD170470A20B2
:1013700000F062FAFBE700001CB5FFF733F9FFF756
:1013800082FFFFF7B7FEFFF725FF01200849420261
:1013900001910090002307A10A4800F019FB0128E1
:1013A00002D00020C0431CBD00F08EFAFEE7000012
:1013B000040000204170705461736B437265617466
:1013C000650000006D030008F8B5134C0F46E66891
:1013D00005462068001D00F0ABF9681C07D1002FFE
:1013E00005D021680D48091D00F0DAF9F8BD206824
:1013F000751945602168B54204D2A06B091D00F043
:10140000B7F9F8BD606B091D00F0B2F9A06A85421A
:10141000F7D2A562F8BD00002C0000205801002082
:10142000F8B5054600F0C8F9294CA068401CA0603A
:101430002068284F002803D06069002827D02CE0BE
:101440002560A068012828D1002614207043C01907
:1014500000F080F9761C052EF7D31E48643000F0AA
:1014600079F91C48783000F075F91A488C3000F092
:1014700071F91848A03000F06DF91648B43000F04A
:1014800069F91448643060631430A06305E0206893
:10149000E96AC06A884200D82560606A401C6062C0
:1014A000E86A2169884200D9206114214843C019A3
:1014B000291D00F075F900F08BF96069002806D04D
:1014C0002068E96AC06A884201D200F0A9F9F8BD33
:1014D0002C000020A400002070B5114E114C18E023
:1014E00000F014FA3068002817D000F0F1FA00F08C
:1014F00063F9F068C568281D00F01AF9A068401E5D
:10150000A0606068401E606000F062F9284600F04C
:101510000BF860680028E3D170BD00F0D9FAF8E755
:10152000440100202C00002010B50446006B00F0A0
:1015300059F9204600F056F910BD000011210E485F
:101540008902420705D0C01DC0080B4AC000821A9C
:10155000891A0A4A0023411809C20839C908C90072
:10156000183A11604B600B600B1A0AC0936001209F
:10157000C0075360D06070476C01002078000020E5
:10158000044CFFF7A9FF20680128FAD900F048F9B8
:10159000F7E70000A4000020FFB581B00C9C90008C
:1015A000236B001F1818C6080A9DF6000020231898
:1015B0000A5C20331A750A5C002A02D0401C1028ED
:1015C000F5D3274600214037F970052D00D30425B7
:1015D000201DE56200F0C9F82046183000F0C5F87B
:1015E00024610520401B6462A061002060643872A1
:1015F0003046049A019900F08BF820600B9800287F
:1016000000D0046005B0F0BD30B5114900E01146CE
:101610000A688242FBD34B685C18844203D140685D
:1016200018184860084643681C18944209D1084CB1
:10163000103C2468A24209D052689A1842600A6895
:1016400012680260814200D0086030BD0460F9E792
:10165000780000200648416B0968002905D0416BDD
:10166000C968C9684968816270470021C943FAE7BF
:101670002C00002072B6FEE7F8B50546002700F002
:1016800045F9224E3068002801D1FFF757FFF06876
:10169000054237D1002D35D00835680704D06807DA
:1016A000400F0821081A4519002D2BD0706885427B
:1016B00028D81648103001460C6801E020460C4638
:1016C0006168A94202D221680029F7D131688C42B1
:1016D00018D007682168016060680837411B10292D
:1016E00004D9601941606560FFF78EFF616870681A
:1016F000401A7060B268904200D2B060F068014356
:10170000002003C400F0E4F93846F8BD680000206A
:1017100010B50124031F24061C601B1F1960191F2C
:10172000024B0B60143940380A6010BD7516000872
:101730004368826801699A60836842685A604A68AF
:10174000824201D182684A60002202610868401E1C
:10175000086070470146083100224160D243C160F1
:1017600082600161002101607047002101617047C2
:1017700030B50B685A1C02D00246083202E00269FA
:1017800004E02246546825689D42FAD953684B60AC
:1017900099608A60516008610168491C016030BD30
:1017A00042684A6093688B609368596091600861F1
:1017B0000168491C0160704772B604480168491C01
:1017C0000160BFF34F8FBFF36F8F70478000002021
:1017D00003490868401E086000D162B670470000E7
:1017E0008000002070B5002816D004460B4D083C40
:1017F0006068E96808420FD02268002A0CD188434B
:10180000606000F083F8606869684018686020468E
:10181000FFF7FAFE00F05CF970BD000068000020E0
:101820000120044900074860BFF34F8FBFF36F8F5B
:101830007047000000ED00E010B5020009D000F094
:1018400065F800211046FFF7BFFD00F041F90028C0
:1018500001D1FFF7E5FF10BD70B50546FFF7ACFFFE
:10186000174C002D00D12568281DFFF761FFA86ADD
:10187000002803D028461830FFF75AFF606A401C42
:1018800060622068854207D1291D0E48FFF788FF56
:101890006068401C606007E0A068401EA0602846A9
:1018A000FFF742FEFFF7D6FEFFF792FF60690028C0
:1018B00004D02068854201D1FFF7B2FF70BD00005F
:1018C0002C000020440100201CB50C48002401908D
:1018D000234680220AA100940B4800F079F80128E1
:1018E0000AD172B600210548C9432C388162012112
:1018F0004161C46000F03AF81CBD000058000020AF
:1019000049444C4500000000811500080248016B65
:10191000491C0163704700002C00002010B51148DD
:10192000016B002902D00121C16110BD0021C161FC
:1019300001690D4A00E0491E14234B43D358002B84
:10194000F9D014234B439A18536814465B68083443
:101950005360A34201D15B685360DA6802600161A1
:1019600010BD00002C000020A400002010B50B4882
:10197000016AFF22120411430162016A120211433B
:1019800001620848064941610721016106490020BA
:101990000860FEF79BFB002010BD000000ED00E09A
:1019A0001F03000000E000E08000002010B5FEF7FB
:1019B000A1FB044600F034F8002803D001200349BD
:1019C000000748602046FEF799FB10BD00ED00E0DF
:1019D000FFB585B0164690000F9FFFF74DFE05003E
:1019E0001AD04C20FFF748FE040012D025630021D6
:1019F0000E9803910197009002943246089B069935
:101A00000598FFF7C9FD2046FFF70AFD012009B040
:101A1000F0BD2846FFF7E6FE0020C043F7E70000D0
:101A2000F8B5294C0027206B002808D0A069401C7D
:101A3000A061E069002800D001273846F8BDE668BB
:101A4000761CE66008D1606BA16B6163A063206ABD
:101A5000401C2062FFF7FEFDA06A86420AD3606B3D
:101A60000068002810D0606BC068C568686886424E
:101A70000DD2A06220681421C06A48431349085857
:101A80000128D6D90127D4E70020C043F1E7281D5B
:101A9000FFF74EFEA86A002803D028461830FFF74B
:101AA00047FEE86A2169884200D920611421484331
:101AB00006494018291DFFF773FEE86A2168C96AC4
:101AC0008842CCD30127CAE72C000020A4000020C4
:101AD000F8B500252F46FFF76FFE234C206B401E04
:101AE0002063206B00283BD1A168204E00291DD126
:101AF00036E0F068C56828461830FFF719FE281D43
:101B0000FFF716FEE86A2169884200D92061142196
:101B1000484316498C394018291DFFF741FEE86AF1
:101B20002168C96A884201D30120E0613068002839
:101B3000DFD1002D01D0FFF78DFDA569002D09D063
:101B40000126FFF76DFF002800D0E6616D1EF8D179
:101B50000020A061E069002802D00127FFF760FEA5
:101B6000FFF736FE3846F8BD2C000020300100207B
:101B70000000000000000000000000000000000065
:101B80000000000000000000000000000000000055
:101B9000010000000200000003000000040000003B
:101BA0000600000007000000080000000900000017
:101BB000D01B000800000020A40000005013000803
:101BC000741C0008A4000020DC480000601300081A
:101BD0000000000000000000000000000000000005
:101BE00000000000000000000000000001000000F4
:101BF00004000000000000000024F40000000000C9
:101C000000000000000000000000000000000000D4
:101C100000000000000000000000000000000000C4
:101C200000000000000000000000000000000000B4
:101C300000000000000000000000000000000000A4
:101C40000000000000000000000000000000000094
:101C5000AAAAAAAA0305F4000000080202101004B0
:101C600000000D0D0D0D0D0D0D0D0D0D0D0D0D0DBE
:041C70000D0D000056
:04000005080000B936
:00000001FF
